:1000000000000000000000000000000000000000F0
:1000100000000101010101000001020203020200CF
:100020000102040407040400030408080F08080080
:10003000060910101F1010000C1221213F21210071
:10004000182442427E42420030488484FC8484006A
:1000500060900808F8080800C0201010F010100088
:1000600080402020E020200000804040C040400030
:100070000000808080808000000000000000000000
:100080000000000000000000000000000000000070
:100090000101010101010100030202030202030048
:1000A00007040407040407000F08080F08080F00DE
:1000B0001F10101F10101F003E21213E21213E0065
:1000C0007C42427C42427C00F88484F88484F800BC
:1000D000F00808F00808F000E01010E01010E00050
:1000E000C02020C02020C0008040408040408000D0
:1000F0000080800080800000000000000000000000
:1001000000000000000000000000000000000000EF
:1001100000010101010100000102020202020100CE
:10012000030404040404030007080808080807007F
:100130000F10101010100F001E21202020211E0073
:100140003C42404040423C0078848080808478007B
:10015000F00800000008F000E01000000010E000CF
:10016000C02000000020C00080400000004080004F
:10017000008000000080000000000000000000007F
:10018000000000000000000000000000000000006F
:100190000101010101010100030202020202030048
:1001A00007040404040407000F08080808080F00E7
:1001B0001E11101010111E003C22212121223C0092
:1001C0007844424242447800F08884848488F00075
:1001D000E01008080810E000C02010101020C00037
:1001E000804020202040800000804040408000006F
:1001F000000080808000000000000000000000007F
:1002000000000000000000000000000000000000EE
:1002100001010101010101000302020302020300C6
:1002200007040407040407000F08080F08080F005C
:100230001F10101F10101F003F20203E20203F00E5
:100240007E40407C40407E00FC8080F88080FC0046
:10025000F80000F00000F800F00000E00000F000FE
:10026000E00000C00000E000C00000800000C0000E
:10027000800000000000800000000000000000007E
:10028000000000000000000000000000000000006E
:100290000101010101010100030202030202020047
:1002A00007040407040404000F08080F08080800E6
:1002B0001F10101F101010003F20203E2020200093
:1002C0007E40407C40404000FC8080F88080800080
:1002D000F80000F000000000F00000E00000000066
:1002E000E00000C000000000C0000080000000002E
:1002F000800000000000000000000000000000007E
:1003000000000000000000000000000000000000ED
:1003100000010101010100000102020202020100CC
:10032000030404040404030007080809080807007C
:100330000F10101310100F001E21202721211E0066
:100340003C42404E42423C007884809C8484780049
:10035000F00800380808F000E01000701010E0000D
:10036000C02000E02020C000804000C0404080004D
:10037000008000808080000000000000000000007D
:10038000000000000000000000000000000000006D
:100390000101010101010100020202030202020047
:1003A00004040407040404000808080F08080800EF
:1003B0001010101F101010002121213F21212100B9
:1003C0004242427E42424200848484FC848484000F
:1003D000080808F808080800101010F010101000A5
:1003E000202020E020202000404040C0404040002D
:1003F000808080808080800000000000000000007D
:1004000000000000000000000000000000000000EC
:1004100000000000000000000100000000000100DA
:1004200003000000000003000701010101010700B3
:100430000F02020202020F001F04040404041F0042
:100440003E08080808083E007C10101010107C00C0
:10045000F82020202020F800F04040404040F000EC
:10046000E08080808080E000C00000000000C000CC
:10047000800000000000800000000000000000007C
:10048000000000000000000000000000000000006C
:100490000000000001010000000000000202010055
:1004A000000000000404030000000000080807002A
:1004B0000000000010100F000101010121211E00A9
:1004C0000202020242423C000404040484847800D4
:1004D000080808080808F000101010101010E000BC
:1004E000202020202020C00040404040404080008C
:1004F00080808080808000000000000000000000FC
:1005000000000000000000000000000000000000EB
:1005100001010101010101000202020302020200C5
:1005200004040407040404000808090E090808006C
:100530001011121C12111000212224382422210033
:100540004244487048444200848890E09088840087
:10055000081020C02010080010204080402010000B
:10056000204080008040200040800000008040004B
:10057000800000000000800000000000000000007B
:10058000000000000000000000000000000000006B
:100590000101010101010100020202020202030045
:1005A00004040404040407000808080808080F00ED
:1005B0001010101010101F002020202020203F00BD
:1005C0004040404040407E00808080808080FC0031
:1005D000000000000000F800000000000000F00033
:1005E000000000000000E000000000000000C0006B
:1005F000000000000000800000000000000000007B
:1006000000000000000000000000000000000000EA
:1006100001010101010101000203020202020200C4
:100620000406050504040400080C0B0B0808080068
:10063000101916161010100021332D2D2121210024
:1006400042665A5A4242420084CCB4B48484840044
:1006500008986868080808001030D0D01010100002
:100660002060A0A02020200040C04040404040002A
:1006700080808080808080000000000000000000FA
:10068000000000000000000000000000000000006A
:100690000101010101010100020302020202020044
:1006A0000406050404040400080C0A0908080800EC
:1006B00010181412111010002131292523212100B6
:1006C0004262524A4642420084C4A4948C8484000C
:1006D00008884828180808001010905030101000A2
:1006E000202020A06020200040404040C04040002A
:1006F000808080808080800000000000000000007A
:1007000000000000000000000000000000000000E9
:1007100000010101010100000102020202020100C8
:100720000304040404040300070808080808070079
:100730000F10101010100F001E21212121211E006A
:100740003C42424242423C00788484848484780063
:10075000F00808080808F000E01010101010E00081
:10076000C02020202020C000804040404040800029
:1007700000808080808000000000000000000000F9
:100780000000000000000000000000000000000069
:100790000101010101010100030202030202020042
:1007A00007040407040404000F08080F08080800E1
:1007B0001F10101F101010003E21213E202020008D
:1007C0007C42427C40404000F88484F88080800075
:1007D000F00808F000000000E01010E00000000049
:1007E000C02020C0000000008040408000000000C9
:1007F00000808000000000000000000000000000F9
:1008000000000000000000000000000000000000E8
:1008100000010101010100000102020202020100C7
:100820000304040404040300070808080908070077
:100830000F10101012110E001E21212125221D0063
:100840003C4242424A443A0078848484948874004A
:10085000F00808082810E800E01010105020D00020
:10086000C0202020A040A0008040404040804000A8
:1008700000808080800080000000000000000000F8
:100880000000000000000000000000000000000068
:100890000101010101010100030202030202020041
:1008A00007040407040404000F08080F09080800DF
:1008B0001F10101F121110003E21213E2422210082
:1008C0007C42427C48444200F88484F8908884004A
:1008D000F00808F020100800E01010E040201000A0
:1008E000C02020C080402000804040800080400028
:1008F0000080800000008000000000000000000078
:1009000000000000000000000000000000000000E7
:1009100000010100000100000102020100020100CB
:100920000304040300040300070808070008070085
:100930000F10100F00100F001E21201E01211E009D
:100940003C42403C02423C00788480780484780039
:10095000F00800F00808F000E01000E01010E000DF
:10096000C02000C02020C0008040008040408000A7
:1009700000800000808000000000000000000000F7
:100980000000000000000000000000000000000067
:100990000100000000000000030000000000000053
:1009A00007000000000000000F010101010101002B
:1009B0001F020202020202003F04040404040400B5
:1009C0007F08080808080800FE101010101010001A
:1009D000FC20202020202000F840404040404000E3
:1009E000F080808080808000E00000000000000037
:1009F000C0000000000000008000000000000000B7
:100A000000000000000000000000000000000000E6
:100A100001010101010100000202020202020100C3
:100A20000404040404040300080808080808070074
:100A30001010101010100F002121212121211E0063
:100A40004242424242423C0084848484848478004E
:100A5000080808080808F000101010101010E00036
:100A6000202020202020C000404040404040800006
:100A70008080808080800000000000000000000076
:100A80000000000000000000000000000000000066
:100A90000101010101000000020202020201000046
:100AA0000404040404020100080808080804030000
:100AB00010101010100906002121212121120C0014
:100AC0004242424242241800848484848448300094
:100AD0000808080808906000101010101020C000CE
:100AE00020202020204080004040404040800000E6
:100AF0008080808080000000000000000000000076
:100B000000000000000000000000000000000000E5
:100B100001010101010101000202020202030200BF
:100B200004040405050604000808080B0B0C080063
:100B300010101016161910002121212D2D3321001F
:100B40004242425A5A664200848484B4B4CC84003F
:100B50000808086868980800101010D0D0301000FD
:100B6000202020A0A06020004040404040C0400025
:100B700080808080808080000000000000000000F5
:100B80000000000000000000000000000000000065
:100B9000010000000000010002010000000102004D
:100BA0000402010101020400080403030304080015
:100BB000100906060609100021120C0C0C12210067
:100BC00042241818182442008448303030488400E9
:100BD00008906060609008001020C0C0C020100025
:100BE0002040808080402000408000000080400045
:100BF00080000000000080000000000000000000F5
:100C000000000000000000000000000000000000E4
:100C100001000000000000000201000000000000D0
:100C200004020100000000000804020101010100AB
:100C3000100805020202020020110A040404040044
:100C400041221408080808008244281010101000DF
:100C500004885020202020000810A0404040400080
:100C60001020408080808000204080000000000034
:100C70004080000000000000800000000000000034
:100C80000000000000000000000000000000000064
:100C90000100000000010100030000000102030048
:100CA00007000001020407000F00010204080F0002
:100CB0001F01020408101F003F02040810203F001B
:100CC0007E04081020407E00FC0810204080FC00BC
:100CD000F81020408000F800F02040800000F00074
:100CE000E04080000000E000C08000000000C00084
:100CF00080000000000080000000000000000000F4
:100D000000000000000000000000000000000000E3
:100D100000010101010100000103030303030100BD
:100D20000306060706060300070C0D0E0C0C070051
:100D30000F191B1D19190F001E33373B33331E00CB
:100D40003C666E7666663C0078CCDCECCCCC7800F9
:100D5000F098B8D89898F000E03070B03030E000EB
:100D6000C060E0606060C00080C0C0C0C0C08000E3
:100D700000808080808000000000000000000000F3
:100D80000000000000000000000000000000000063
:100D9000000000000000010000010000000003004E
:100DA00001030101010107000307030303030F000F
:100DB000060E060606061F000C1C0C0C0C0C3F0051
:100DC0001838181818187E00307030303030FC0099
:100DD00060E060606060F800C0C0C0C0C0C0F000EB
:100DE000808080808080E000000000000000C00063
:100DF0000000000000008000000000000000000073
:100E000000000000000000000000000000000000E2
:100E100000010000000101000103000001030300C4
:100E20000306000103060700070C0003060C0F0071
:100E30000F1901070C181F001E33030E18303F0056
:100E40003C66061C30607E0078CC0C3860C0FC002C
:100E5000F0981870C080F800E03030E08000F000BA
:100E6000C06060C00000E00080C0C0800000C00022
:100E700000808000000080000000000000000000F2
:100E80000000000000000000000000000000000062
:100E90000001000000010000010300000003010048
:100EA0000306000100060300070C0003000C070006
:100EB0000F19010701190F001E33030E03331E0023
:100EC0003C66061C06663C0078CC0C380CCC7800DE
:100ED000F09818701898F000E03030E03030E00002
:100EE000C06060C06060C00080C0C080C0C08000C2
:100EF00000808000808000000000000000000000F2
:100F000000000000000000000000000000000000E1
:100F100000000001010000000000010303000000C8
:100F200000010306070000000103070D0F01010087
:100F300003070F1B1F030300060E1E363F060600A5
:100F40000C1C3C6C7E0C0C00183878D8FC1818006F
:100F50003070F0B0F830300060E0E060F0606000C9
:100F6000C0C0C0C0E0C0C00080808080C080800061
:100F700000000000800000000000000000000000F1
:100F80000000000000000000000000000000000061
:100F90000101010000010000030303000003010040
:100FA00007060700000603000F0C0F00000C0700E7
:100FB0001F181F0101190F003F303E0303331E00AD
:100FC0007E607C0606663C00FCC0F80C0CCC780009
:100FD000F880F0181898F000F000E0303030E000B1
:100FE000E000C0606060C000C00080C0C0C0800081
:100FF00080000080808000000000000000000000F1
:1010000000000000000000000000000000000000E0
:1010100000000101010100000001030303030100BE
:10102000010306070606030003060C0F0C0C07005D
:10103000070C181F19190F000E18303E33331E000D
:101040001C30607C66663C003860C0F8CCCC780010
:1010500070C080F09898F000E08000E03030E00050
:10106000C00000C06060C00080000080C0C0800080
:101070000000000080800000000000000000000070
:101080000000000000000000000000000000000060
:101090000100000000000000030000000101010049
:1010A00007000001030303000F000103060606000A
:1010B0001F0103060C0C0C003F03060C1818180047
:1010C0007E060C1830303000FC0C18306060600078
:1010D000F8183060C0C0C000F03060C08080800070
:1010E000E060C08000000000C0C080000000000080
:1010F00080800000000000000000000000000000F0
:1011000000000000000000000000000000000000DF
:1011100000010100010100000103030103030100BC
:101120000306060306060300070C0C070C0C070059
:101130000F19190F19190F001E33331E33331E00F8
:101140003C66663C66663C0078CCCC78CCCC7800BB
:10115000F09898F09898F000E03030E03030E000FF
:10116000C06060C06060C00080C0C080C0C080003F
:10117000008080008080000000000000000000006F
:10118000000000000000000000000000000000005F
:101190000001010000000000010303010000010044
:1011A0000306060300000300070C0C0700010700FC
:1011B0000F19190F01030E001E33331F03061C0005
:1011C0003C66663E060C380078CCCC7C0C1870006F
:1011D000F09898F81830E000E03030F03060C0004F
:1011E000C06060E060C0800080C0C0C0C0800000FF
:1011F00000808080800000000000000000000000EF
:1012000000000000000000000000000000000000DE
:1012100000000000000000000000000000000000CE
:1012200000000101010101000000020202020200AF
:101230000000040404040400000008080808080072
:1012400000001010101010000000202020202000AE
:1012500000004040404040000000808080808000CE
:10126000000000000000000000000000000000007E
:10127000000000000000000000000000000000006E
:10128000000000000000000000000101010000005B
:101290000000020203000000000004040700000038
:1012A000000008080F000100000010101F000200DD
:1012B000000021213F000400000042427E0008009F
:1012C00000008484FC00100000000808F8002000E2
:1012D00000001010F000400000002020E00080001E
:1012E00000004040C000000000008080800000003E
:1012F00000000000000000000000000000000000EE
:1013000000000000000000000000010101000000DA
:1013100000000202030000000000040407000100B6
:10132000000008080F000301000010101F00060253
:10133000000021213F000C04000042427E001808FA
:1013400000008484FC00301000000808F8006020D1
:1013500000001010F000C04000002020E00080805D
:1013600000004040C00000000000808080000000BD
:10137000000000000000000000000000000000006D
:10138000000000000000000000000000010101005A
:101390000000000002020300000000010404070036
:1013A0000000000308080F000000000610101F00D6
:1013B0000000000C21213F000000001842427E0086
:1013C000000000308484FC00000000600808F80081
:1013D000000000C01010F000000000802020E0009D
:1013E000000000004040C00000000000808080003D
:1013F00000000000000000000000000000000000ED
:1014000000000000000000000000000001010100D9
:1014100000000000020203000000000104040700B5
:101420000000010308080F000000020610101F0052
:101430000000040C21213F000000081842427E00F9
:10144000000010308484FC00000020600808F800D0
:10145000000040C01010F000000080802020E0005C
:10146000000000004040C0000000000080808000BC
:10147000000000000000000000000000000000006C
:10148000000000000000000000000000000000005C
:101490000000000000000100000001000001020146
:1014A0000001020001020403000205010205080711
:1014B00000040A02040A100F000814040814211E74
:1014C000001028081028423C00205010205084783A
:1014D0000040A02040A008F000804040804010E084
:1014E00000008080008020C00000000000004080DC
:1014F000000000000000800000000000000000006C
:1015000000000000000000000000000000000000DB
:1015100000000000000100000001000001020100C5
:10152000010200010204020102050102050904038F
:10153000040A02040B120807081404081624110EEA
:10154000102808102C48221C205010205890443895
:1015500040A02040B020887080404080604010E073
:1015600000808000C08020C000000000800040801B
:1015700000000000000080000000000000000000EB
:10158000000000000000000000000000000000005B
:101590000000000000000100000001000001020145
:1015A0000001020001020403000205010204080711
:1015B00000040A020408110E000814040810221C7A
:1015C0000010280810204438002050102040887057
:1015D0000040A020408010E000804040800020C0FB
:1015E00000008080000040800000000000008000BB
:1015F00000000000000000000000000000000000EB
:1016000000000000000000000000000000000000DA
:1016100000000000000001000000010000010201C4
:101620000001020001020403000205010204080790
:1016300001040A020408110E020814040810221CF6
:1016400004102808102044380820501020408870CA
:101650001040A020408010E020804040800020C04A
:10166000400080800000408080000000000080007A
:10167000000000000000000000000000000000006A
:10168000000000000000000000000000000000005A
:101690000000000000000000000001000000010048
:1016A0000000020100010200000004020102040027
:1016B00000000804020408000000100804081000DC
:1016C00000002010081020000000402010204000E2
:1016D000000080402040800000000080408000002A
:1016E000000000008000000000000000000000007A
:1016F00000000000000000000000000000000000EA
:1017000000000000000000000000000000000000D9
:1017100000000000000000000100010000000100C6
:1017200002000201000102000400040201020400A0
:101730000800080402040800100010080408100043
:101740002000201008102000400040201020400001
:101750008000804020408000000000804080000029
:1017600000000000800000000000000000000000F9
:101770000000000000000000000000000000000069
:101780000000000000000000000000000000000059
:101790000000000001000000000000000201000045
:1017A0000000000004030000000000000906000023
:1017B00000000001120C00000000010224180000CB
:1017C000000002044830000000000408906000009F
:1017D0000000081020C00000000010204080000021
:1017E0000000204080000000000040800000000059
:1017F0000000800000000000000000000000000069
:1018000000000000000000000000000001000000D7
:1018100000000000020100000000000004030000BE
:10182000000000000906000000000001120C00008A
:1018300001000102241800000200020448300000E8
:1018400004000408906000000800081020C0000098
:101850001000102040800000200020408000000088
:101860004000408000000000800080000000000078
:101870000000000000000000000000000000000068
:101880000000000000000000000000000000010057
:10189000000000000000020100000000000004033E
:1018A0000000000000000906000000000001120C0A
:1018B0000000010001022418010003000204483066
:1018C000020006000408906004000C00081020C00C
:1018D00008001800102040801000300020408000D8
:1018E00020006000408000004000C0008000000038
:1018F00080008000000000000000000000000000E8
:1019000000000000000000000000000101010000D4
:1019100000000002020300000000000505070000AF
:101920000000010B0A0E000000000217141C00004A
:101930000000052E2838000000000A5D50700000ED
:10194000000015BBA0E0000000002A7640C00000A7
:10195000000054EC808000000000A8D800000000C7
:10196000000050B0000000000000A0600000000077
:10197000000040C000000000000080800000000067
:101980000000000000000000000000000101010054
:10199000000000000202030000000000050507002F
:1019A000000000010B0A0E000000000217141C00CA
:1019B000000100052E2838000103000A5D50700068
:1019C00002060015BBA0E000040C002A7640C0000F
:1019D00008180054EC808000103000A8D8000000E7
:1019E00020600050B000000040C000A06000000077
:1019F00080800040C00000000000008080000000E7
:101A000000000000000000000000000000010101D3
:101A100000000000000202030000000000040407B0
:101A2000000000000008080F000000010011111F55
:101A3000000001020122223E000003040344447C12
:101A400000000609068888F800000C120C1010F03F
:101A500000001824182020E000003048304040C02A
:101A600000006090608080800000C020C000000006
:101A700000008040800000000000008000000000A6
:101A80000000000000000000000000000001010153
:101A90000000000000020203000000000004040730
:101AA000000000000008080F000000010011111FD5
:101AB000000001020122223E010003040344447C91
:101AC00002000609068888F804000C120C1010F0B9
:101AD00008001824182020E010003048304040C092
:101AE00020006090608080804000C020C000000026
:101AF00080008040800000000000008000000000A6
:101B000000000000000000000000000000000100D4
:101B100000000000000003000001010101010700B6
:101B20000002020202030F000004040405061F0065
:101B3000000808080B0C3F000010101016197E005A
:101B4000002020202C32FC00004040405864F80067
:101B500000808080B0C8F000000000006090E000CD
:101B600000000000C020C000000000008040800095
:101B700000000000008000000000000000000000E5
:101B80000000000000000000000000000000010054
:101B90000000000000000300000101010101070036
:101BA0000002020202030F000004040405061F00E5
:101BB000000809080B0C3F000010121016197E00D7
:101BC000002024202C32FC00004048405864F800DB
:101BD00000809080B0C8F000000020006090E0001D
:101BE00000004000C020C000000080008040800055
:101BF0000000000000800000000000000000000065
:101C000000000000000000000000000000000000D4
:101C100000000000000101010000000001030203B8
:101C2000000100010306040701020103060C080F6E
:101C3000020403060C18101F0409060C1830213F7B
:101C400008120C183060427E1024183060C084FCEA
:101C500020483060C08008F8409060C0800010F0DC
:101C60008020C080000020E000408000000040C0D4
:101C700000800000000080800000000000000000E4
:101C80000000000000000000000000000000000054
:101C9000000000000000010000000000000102013F
:101CA0000000010001020403000102010204080710
:101CB000000204030408110E000408060810221C88
:101CC0000008100C102044380010201820408870A4
:101CD00000204030408010E000408060800020C044
:101CE000008000C0000040800000008000008000F4
:101CF00000000000000000000000000000000000E4
:101D000000000000000000000000000001010100D0
:101D100000000000020203000000000004040700AD
:101D20000000000008080F000000000010101F0055
:101D30000001000121203F000002000343417F0019
:101D4000000400068682FE000008000C0C04FC0063
:101D5000001000181808F800002000303010F000C3
:101D6000004000606020E000008000C0C040C00073
:101D70000000008080808000000000000000000063
:101D80000000000000000000000000000001010051
:101D90000000000000020201000000000004040333
:101DA0000000000000080807000100010110100FEA
:101DB000000300030321211E000600060642423CE8
:101DC000000C000C0C84847800180018180808F027
:101DD00000300030301010E000600060602020C053
:101DE00000C000C0C0404080008000808080800033
:101DF00000000000000000000000000000000000E3
:101E000000000000000000000000000001010100CF
:101E100000000000020203000000000004040700AC
:101E20000000000008080F000000000011111F0052
:101E30000000010022223E000001020044447C0018
:101E4000010204008888F800020408001010F00065
:101E5000040810002020E000081020004040C000CE
:101E600010204000808080002040800000000000A2
:101E70004080000000000000800000000000000022
:101E8000000000000000000000000000010101004F
:101E9000000000000202030000000000040407002C
:101EA0000000000008080F000000000011111F00D2
:101EB0000100010022223E000201020044447C0095
:101EC000050204008888F8000A0408001010F000D9
:101ED000140810002020E000281020004040C0001E
:101EE0005020400080808000A04080000000000062
:101EF00040800000000000008000000000000000A2
:101F000000000000000000000000000001010100CE
:101F100000000000020203000000000004040700AB
:101F20000000010109090F000000020212121E0048
:101F30000000040424243C000000080848487800FD
:101F4000000010109090F000000020202020E00001
:101F5000000040404040C000000080808080800041
:101F60000000000000000000000000000000000071
:101F70000000000000000000000000000000000061
:101F80000000000000000000000000000000000051
:101F90000000000101010100000000030202020034
:101FA00000000107040404000000030F08080800F3
:101FB0000000061E1010100000000C3C2020200025
:101FC0000000187840404000000030F08080800021
:101FD000000060E0000000000000C0C00000000041
:101FE00000008080000000000000000000000000F1
:101FF00000000000000000000000000000000000E1
:1020000000000000000000000000000101010000CD
:1020100000000002020201000000010404040300A9
:1020200000000208080807000000041111110E004A
:102030000000082222221C00000010444444380002
:102040000000208888887000000040101010E00018
:10205000000080202020C0000000004040408000A0
:1020600000000080808000000000000000000000F0
:102070000000000000000000000000000000000060
:102080000000000000000000000000000000000050
:10209000000000000000000000000101000100003D
:1020A0000000030301020000000006060204000015
:1020B00000000C0C040800000000181808100000B4
:1020C0000000303010200000000060602040000060
:1020D0000000C0C040800000000080808000000040
:1020E00000000000000000000000000000000000F0
:1020F00000000000000000000000000000000000E0
:1021000000000000000000000000000001000000CE
:1021100000000001020100000000010204030000B1
:1021200000000205080700000000040A110E00006C
:1021300000000814221C0000000010284438000091
:102140000000205088700000000040A010E0000057
:102150000000804020C0000000000080408000009F
:1021600000000000800000000000000000000000EF
:10217000000000000000000000000000000000005F
:10218000000000000000000000000000010100004D
:10219000000000000202010000000000040403002F
:1021A00000000000080807000000000110100F00E8
:1021B0000000010221211E000000020442423C00F6
:1021C0000000040884847800000008100808F0006B
:1021D000000010201010E000000020402020C0006F
:1021E00000004080404080000000800080800000AF
:1021F00000000000000000000000000000000000DF
:1022000000000000000000000101010101010101C6
:102210000302020202020203070404040404040786
:102220000F0808080808080F1F1010101010101FC2
:102230003F2020202020203F7F4040404040407FE2
:10224000FF818181818181FFFE020202020202FE82
:10225000FC040404040404FCF8080808080808F84E
:10226000F0101010101010F0E0202020202020E0AE
:10227000C0404040404040C080808080808080805E
:102280000000000000000000010101010101010146
:1022900003030303030303030707070707070707EE
:1022A0000F0F0F0F0F0F0F0F1F1F1F1F1F1F1F1FBE
:1022B0003F3F3F3F3F3F3F3F7F7F7F7F7F7F7F7F2E
:1022C000FFFFFFFFFFFFFFFFFEFEFEFEFEFEFEFE26
:1022D000FCFCFCFCFCFCFCFCF8F8F8F8F8F8F8F85E
:1022E000F0F0F0F0F0F0F0F0E0E0E0E0E0E0E0E06E
:1022F000C0C0C0C0C0C0C0C08080808080808080DE
:1023000000000000000000000000010101000000CA
:1023100000010202020100000102040404020100A3
:102320000304080808040300070810101008070039
:102330000F10202020100F001E21404040211E00C1
:102340003C42818181423C00788402020284780010
:10235000F00804040408F000E01008080810E00089
:10236000C02010101020C00080402020204080009D
:10237000008040404080000000008080800000001D
:10238000000000000000000000000101010000004A
:102390000001030303010000010307070703010015
:1023A00003070F0F0F070300070F1F1F1F0F070063
:1023B0000F1F3F3F3F1F0F001E3F7F7F7F3F1E00CD
:1023C0003C7EFFFFFF7E3C0078FCFEFEFEFC7800BA
:1023D000F0F8FCFCFCF8F000E0F0F8F8F8F0E000B1
:1023E000C0E0F0F0F0E0C00080C0E0E0E0C08000BD
:1023F0000080C0C0C080000000008080800000001D
:1024000000000000000000000000010100000000CA
:10241000000103030100000000030707030100009F
:1024200000060F0F07030100000C1F1F0F0703001A
:1024300000193F3F1F0F060000337F7F3F1E0C0037
:102440000066FFFF7E3C180000CCFEFEFC783000EA
:102450000098FCFCF8F060000030F8F8F0E0C000F4
:102460000060F0F0E0C0800000C0E0E0C08000004C
:102470000080C0C0800000000000808000000000DC
:10248000000000000000000000000000000000004C
:10249000000000000000000000000000000000003C
:1024A000000000000000000000000000000000002C
:1024B000000000000000000000000000000000001C
:00000001FF